{
  "_format": "hh-sol-artifact-1",
  "contractName": "TicketSale",
  "sourceName": "contracts/TicketSale.sol",
  "abi": [
    {
      "anonymous": false,
      "inputs": [
        {
          "indexed": false,
          "internalType": "uint256",
          "name": "ticketId",
          "type": "uint256"
        },
        {
          "indexed": false,
          "internalType": "address",
          "name": "buyer",
          "type": "address"
        },
        {
          "indexed": false,
          "internalType": "uint256",
          "name": "acceptedPrice",
          "type": "uint256"
        }
      ],
      "name": "OfferAccepted",
      "type": "event"
    },
    {
      "anonymous": false,
      "inputs": [
        {
          "indexed": false,
          "internalType": "uint256",
          "name": "ticketId",
          "type": "uint256"
        },
        {
          "indexed": false,
          "internalType": "address",
          "name": "buyer",
          "type": "address"
        },
        {
          "indexed": false,
          "internalType": "uint256",
          "name": "offerPrice",
          "type": "uint256"
        }
      ],
      "name": "OfferMade",
      "type": "event"
    },
    {
      "anonymous": false,
      "inputs": [
        {
          "indexed": false,
          "internalType": "uint256",
          "name": "id",
          "type": "uint256"
        },
        {
          "indexed": false,
          "internalType": "address",
          "name": "seller",
          "type": "address"
        },
        {
          "indexed": false,
          "internalType": "string",
          "name": "eventDetails",
          "type": "string"
        },
        {
          "indexed": false,
          "internalType": "uint256",
          "name": "price",
          "type": "uint256"
        },
        {
          "indexed": false,
          "internalType": "uint256",
          "name": "ticketsAvailable",
          "type": "uint256"
        },
        {
          "indexed": false,
          "internalType": "bool",
          "name": "isNegotiable",
          "type": "bool"
        }
      ],
      "name": "TicketCreated",
      "type": "event"
    },
    {
      "anonymous": false,
      "inputs": [
        {
          "indexed": false,
          "internalType": "uint256",
          "name": "id",
          "type": "uint256"
        },
        {
          "indexed": false,
          "internalType": "address",
          "name": "buyer",
          "type": "address"
        },
        {
          "indexed": false,
          "internalType": "uint256",
          "name": "price",
          "type": "uint256"
        },
        {
          "indexed": false,
          "internalType": "string",
          "name": "buyerEmail",
          "type": "string"
        },
        {
          "indexed": false,
          "internalType": "string",
          "name": "buyerPhone",
          "type": "string"
        },
        {
          "indexed": false,
          "internalType": "string",
          "name": "nftOrImageCID",
          "type": "string"
        }
      ],
      "name": "TicketPurchased",
      "type": "event"
    },
    {
      "inputs": [
        {
          "internalType": "uint256",
          "name": "_ticketId",
          "type": "uint256"
        },
        {
          "internalType": "string",
          "name": "_buyerEmail",
          "type": "string"
        },
        {
          "internalType": "string",
          "name": "_buyerPhone",
          "type": "string"
        },
        {
          "internalType": "string",
          "name": "_nftOrImageCID",
          "type": "string"
        }
      ],
      "name": "buyTicket",
      "outputs": [],
      "stateMutability": "payable",
      "type": "function"
    },
    {
      "inputs": [
        {
          "internalType": "string",
          "name": "_eventDetails",
          "type": "string"
        },
        {
          "internalType": "string",
          "name": "_location",
          "type": "string"
        },
        {
          "internalType": "uint256",
          "name": "_price",
          "type": "uint256"
        },
        {
          "internalType": "uint256",
          "name": "_ticketsAvailable",
          "type": "uint256"
        },
        {
          "internalType": "bool",
          "name": "_isNegotiable",
          "type": "bool"
        },
        {
          "internalType": "uint256",
          "name": "_minOffer",
          "type": "uint256"
        },
        {
          "internalType": "string",
          "name": "_sellerEmail",
          "type": "string"
        },
        {
          "internalType": "string",
          "name": "_imageCID",
          "type": "string"
        },
        {
          "internalType": "string",
          "name": "_eventLink",
          "type": "string"
        }
      ],
      "name": "createTicket",
      "outputs": [],
      "stateMutability": "nonpayable",
      "type": "function"
    },
    {
      "inputs": [
        {
          "internalType": "uint256",
          "name": "_ticketId",
          "type": "uint256"
        }
      ],
      "name": "getBuyerDetails",
      "outputs": [
        {
          "internalType": "string",
          "name": "buyerEmail",
          "type": "string"
        },
        {
          "internalType": "string",
          "name": "buyerPhone",
          "type": "string"
        },
        {
          "internalType": "string",
          "name": "nftOrImageCID",
          "type": "string"
        }
      ],
      "stateMutability": "view",
      "type": "function"
    },
    {
      "inputs": [
        {
          "internalType": "uint256",
          "name": "_ticketId",
          "type": "uint256"
        }
      ],
      "name": "getTicketDetails",
      "outputs": [
        {
          "internalType": "uint256",
          "name": "id",
          "type": "uint256"
        },
        {
          "internalType": "address",
          "name": "seller",
          "type": "address"
        },
        {
          "internalType": "string",
          "name": "eventDetails",
          "type": "string"
        },
        {
          "internalType": "string",
          "name": "location",
          "type": "string"
        },
        {
          "internalType": "uint256",
          "name": "price",
          "type": "uint256"
        },
        {
          "internalType": "uint256",
          "name": "ticketsAvailable",
          "type": "uint256"
        },
        {
          "internalType": "bool",
          "name": "isNegotiable",
          "type": "bool"
        },
        {
          "internalType": "uint256",
          "name": "minOffer",
          "type": "uint256"
        },
        {
          "internalType": "bool",
          "name": "isSoldOut",
          "type": "bool"
        },
        {
          "internalType": "string",
          "name": "imageCID",
          "type": "string"
        },
        {
          "internalType": "string",
          "name": "eventLink",
          "type": "string"
        },
        {
          "internalType": "string",
          "name": "sellerEmail",
          "type": "string"
        }
      ],
      "stateMutability": "view",
      "type": "function"
    },
    {
      "inputs": [
        {
          "internalType": "uint256",
          "name": "",
          "type": "uint256"
        }
      ],
      "name": "ticketBuyers",
      "outputs": [
        {
          "internalType": "string",
          "name": "buyerEmail",
          "type": "string"
        },
        {
          "internalType": "string",
          "name": "buyerPhone",
          "type": "string"
        },
        {
          "internalType": "string",
          "name": "nftOrImageCID",
          "type": "string"
        }
      ],
      "stateMutability": "view",
      "type": "function"
    },
    {
      "inputs": [],
      "name": "ticketCount",
      "outputs": [
        {
          "internalType": "uint256",
          "name": "",
          "type": "uint256"
        }
      ],
      "stateMutability": "view",
      "type": "function"
    },
    {
      "inputs": [
        {
          "internalType": "uint256",
          "name": "",
          "type": "uint256"
        },
        {
          "internalType": "uint256",
          "name": "",
          "type": "uint256"
        }
      ],
      "name": "ticketOffers",
      "outputs": [
        {
          "internalType": "address payable",
          "name": "buyer",
          "type": "address"
        },
        {
          "internalType": "uint256",
          "name": "offerPrice",
          "type": "uint256"
        },
        {
          "internalType": "bool",
          "name": "isAccepted",
          "type": "bool"
        }
      ],
      "stateMutability": "view",
      "type": "function"
    },
    {
      "inputs": [
        {
          "internalType": "uint256",
          "name": "",
          "type": "uint256"
        }
      ],
      "name": "tickets",
      "outputs": [
        {
          "internalType": "uint256",
          "name": "id",
          "type": "uint256"
        },
        {
          "internalType": "address payable",
          "name": "seller",
          "type": "address"
        },
        {
          "internalType": "string",
          "name": "eventDetails",
          "type": "string"
        },
        {
          "internalType": "string",
          "name": "location",
          "type": "string"
        },
        {
          "internalType": "uint256",
          "name": "price",
          "type": "uint256"
        },
        {
          "internalType": "uint256",
          "name": "ticketsAvailable",
          "type": "uint256"
        },
        {
          "internalType": "bool",
          "name": "isNegotiable",
          "type": "bool"
        },
        {
          "internalType": "uint256",
          "name": "minOffer",
          "type": "uint256"
        },
        {
          "internalType": "bool",
          "name": "isSoldOut",
          "type": "bool"
        },
        {
          "internalType": "string",
          "name": "imageCID",
          "type": "string"
        },
        {
          "internalType": "string",
          "name": "eventLink",
          "type": "string"
        },
        {
          "internalType": "string",
          "name": "sellerEmail",
          "type": "string"
        }
      ],
      "stateMutability": "view",
      "type": "function"
    },
    {
      "inputs": [
        {
          "internalType": "address",
          "name": "",
          "type": "address"
        },
        {
          "internalType": "uint256",
          "name": "",
          "type": "uint256"
        }
      ],
      "name": "userTickets",
      "outputs": [
        {
          "internalType": "uint256",
          "name": "",
          "type": "uint256"
        }
      ],
      "stateMutability": "view",
      "type": "function"
    }
  ],
  "bytecode": "0x608060405234801561001057600080fd5b506001600055611963806100256000396000f3fe6080604052600436106100865760003560e01c8063992245d311610059578063992245d314610121578063ce010ba314610150578063cf260baf14610170578063cfbd900f1461019e578063d4f4b27b146101b457600080fd5b806324c141601461008b578063310efb9a146100cc57806350b44712146100ee578063592805081461010e575b600080fd5b34801561009757600080fd5b506100ab6100a63660046112ee565b6101fb565b6040516100c39c9b9a9998979695949392919061134d565b60405180910390f35b3480156100d857600080fd5b506100ec6100e73660046114c5565b6105b0565b005b3480156100fa57600080fd5b506100ab6101093660046112ee565b61087b565b6100ec61011c3660046115c5565b610b92565b34801561012d57600080fd5b5061014161013c3660046112ee565b610e86565b6040516100c393929190611657565b34801561015c57600080fd5b5061014161016b3660046112ee565b61105b565b34801561017c57600080fd5b5061019061018b36600461169a565b611215565b6040519081526020016100c3565b3480156101aa57600080fd5b5061019060015481565b3480156101c057600080fd5b506101d46101cf3660046116d2565b611246565b604080516001600160a01b03909416845260208401929092521515908201526060016100c3565b600080606080600080600080600060608060606000600260008f8152602001908152602001600020905080600001546000036102765760405162461bcd60e51b8152602060048201526015602482015274151a58dad95d08191bd95cc81b9bdd08195e1a5cdd605a1b60448201526064015b60405180910390fd5b80546001820154600483015460058401546006850154600786015460088701546002880180546001600160a01b0390971696909560038a01959094909360ff91821693909291169060098b0190600a8c0190600b8d01908a906102d8906116f4565b80601f0160208091040260200160405190810160405280929190818152602001828054610304906116f4565b80156103515780601f1061032657610100808354040283529160200191610351565b820191906000526020600020905b81548152906001019060200180831161033457829003601f168201915b50505050509950888054610364906116f4565b80601f0160208091040260200160405190810160405280929190818152602001828054610390906116f4565b80156103dd5780601f106103b2576101008083540402835291602001916103dd565b820191906000526020600020905b8154815290600101906020018083116103c057829003601f168201915b505050505098508280546103f0906116f4565b80601f016020809104026020016040519081016040528092919081815260200182805461041c906116f4565b80156104695780601f1061043e57610100808354040283529160200191610469565b820191906000526020600020905b81548152906001019060200180831161044c57829003601f168201915b5050505050925081805461047c906116f4565b80601f01602080910402602001604051908101604052809291908181526020018280546104a8906116f4565b80156104f55780601f106104ca576101008083540402835291602001916104f5565b820191906000526020600020905b8154815290600101906020018083116104d857829003601f168201915b50505050509150808054610508906116f4565b80601f0160208091040260200160405190810160405280929190818152602001828054610534906116f4565b80156105815780601f1061055657610100808354040283529160200191610581565b820191906000526020600020905b81548152906001019060200180831161056457829003601f168201915b505050505090509c509c509c509c509c509c509c509c509c509c509c509c505091939597999b5091939597999b565b600087116106005760405162461bcd60e51b815260206004820152601f60248201527f5072696365206d7573742062652067726561746572207468616e207a65726f00604482015260640161026d565b600086116106645760405162461bcd60e51b815260206004820152602b60248201527f5469636b65747320617661696c61626c65206d7573742062652067726561746560448201526a72207468616e207a65726f60a81b606482015260840161026d565b60008351116106b55760405162461bcd60e51b815260206004820152601860248201527f53656c6c657220656d61696c2069732072657175697265640000000000000000604482015260640161026d565b600180549060006106c583611744565b91905055506040518061018001604052806001548152602001336001600160a01b031681526020018a815260200189815260200188815260200187815260200186151581526020018661071957600061071b565b855b8152600060208083018290526040808401879052606084018690526080909301879052600180548352600280835292849020855181559185015190820180546001600160a01b0319166001600160a01b03909216919091179055918301519082019061078790826117ac565b506060820151600382019061079c90826117ac565b506080820151600482015560a0820151600582015560c082015160068201805491151560ff1992831617905560e083015160078301556101008301516008830180549115159190921617905561012082015160098201906107fd90826117ac565b50610140820151600a82019061081390826117ac565b50610160820151600b82019061082990826117ac565b509050507f896c1928ae64d47513b9911dbed3197d23eb27e2aadd7db795d3f91093fbe218600154338b8a8a8a6040516108689695949392919061186c565b60405180910390a1505050505050505050565b600260208190526000918252604090912080546001820154928201805491936001600160a01b031692916108ae906116f4565b80601f01602080910402602001604051908101604052809291908181526020018280546108da906116f4565b80156109275780601f106108fc57610100808354040283529160200191610927565b820191906000526020600020905b81548152906001019060200180831161090a57829003601f168201915b50505050509080600301805461093c906116f4565b80601f0160208091040260200160405190810160405280929190818152602001828054610968906116f4565b80156109b55780601f1061098a576101008083540402835291602001916109b5565b820191906000526020600020905b81548152906001019060200180831161099857829003601f168201915b505050600484015460058501546006860154600787015460088801546009890180549899959894975060ff938416965091949216926109f3906116f4565b80601f0160208091040260200160405190810160405280929190818152602001828054610a1f906116f4565b8015610a6c5780601f10610a4157610100808354040283529160200191610a6c565b820191906000526020600020905b815481529060010190602001808311610a4f57829003601f168201915b50505050509080600a018054610a81906116f4565b80601f0160208091040260200160405190810160405280929190818152602001828054610aad906116f4565b8015610afa5780601f10610acf57610100808354040283529160200191610afa565b820191906000526020600020905b815481529060010190602001808311610add57829003601f168201915b50505050509080600b018054610b0f906116f4565b80601f0160208091040260200160405190810160405280929190818152602001828054610b3b906116f4565b8015610b885780601f10610b5d57610100808354040283529160200191610b88565b820191906000526020600020905b815481529060010190602001808311610b6b57829003601f168201915b505050505090508c565b610b9a611295565b60008481526002602052604081208054909103610bf15760405162461bcd60e51b8152602060048201526015602482015274151a58dad95d08191bd95cc81b9bdd08195e1a5cdd605a1b604482015260640161026d565b6000816005015411610c3c5760405162461bcd60e51b81526020600482015260146024820152734e6f207469636b65747320617661696c61626c6560601b604482015260640161026d565b600681015460ff1615610c9d5760405162461bcd60e51b815260206004820152602360248201527f5469636b6574206973206e65676f746961626c652c20757365206d616b654f666044820152623332b960e91b606482015260840161026d565b80600401543414610ce25760405162461bcd60e51b815260206004820152600f60248201526e496e636f727265637420707269636560881b604482015260640161026d565b60018101546001600160a01b03163303610d3e5760405162461bcd60e51b815260206004820152601e60248201527f596f752063616e6e6f742062757920796f7572206f776e207469636b65740000604482015260640161026d565b60018101546040516001600160a01b03909116903480156108fc02916000818181858888f19350505050158015610d79573d6000803e3d6000fd5b50600581018054906000610d8c836118b6565b91905055508060050154600003610dad5760088101805460ff191660011790555b33600090815260036020908152604080832084548154600181018355918552838520909101558051606081018252878152808301879052808201869052888452600590925290912081518190610e0390826117ac565b5060208201516001820190610e1890826117ac565b5060408201516002820190610e2d90826117ac565b50505060048101546040517fa99d100f4385ec79b91868f648cc888ab8cddb78227bbfecf81c6109cb5fbf3191610e6d91889133918990899089906118cd565b60405180910390a150610e806001600055565b50505050565b6000818152600560205260409020805460609182918291908190600182019060028301908390610eb5906116f4565b80601f0160208091040260200160405190810160405280929190818152602001828054610ee1906116f4565b8015610f2e5780601f10610f0357610100808354040283529160200191610f2e565b820191906000526020600020905b815481529060010190602001808311610f1157829003601f168201915b50505050509250818054610f41906116f4565b80601f0160208091040260200160405190810160405280929190818152602001828054610f6d906116f4565b8015610fba5780601f10610f8f57610100808354040283529160200191610fba565b820191906000526020600020905b815481529060010190602001808311610f9d57829003601f168201915b50505050509150808054610fcd906116f4565b80601f0160208091040260200160405190810160405280929190818152602001828054610ff9906116f4565b80156110465780601f1061101b57610100808354040283529160200191611046565b820191906000526020600020905b81548152906001019060200180831161102957829003601f168201915b50505050509050935093509350509193909250565b600560205260009081526040902080548190611076906116f4565b80601f01602080910402602001604051908101604052809291908181526020018280546110a2906116f4565b80156110ef5780601f106110c4576101008083540402835291602001916110ef565b820191906000526020600020905b8154815290600101906020018083116110d257829003601f168201915b505050505090806001018054611104906116f4565b80601f0160208091040260200160405190810160405280929190818152602001828054611130906116f4565b801561117d5780601f106111525761010080835404028352916020019161117d565b820191906000526020600020905b81548152906001019060200180831161116057829003601f168201915b505050505090806002018054611192906116f4565b80601f01602080910402602001604051908101604052809291908181526020018280546111be906116f4565b801561120b5780601f106111e05761010080835404028352916020019161120b565b820191906000526020600020905b8154815290600101906020018083116111ee57829003601f168201915b5050505050905083565b6003602052816000526040600020818154811061123157600080fd5b90600052602060002001600091509150505481565b6004602052816000526040600020818154811061126257600080fd5b60009182526020909120600390910201805460018201546002909201546001600160a01b03909116935090915060ff1683565b6002600054036112e75760405162461bcd60e51b815260206004820152601f60248201527f5265656e7472616e637947756172643a207265656e7472616e742063616c6c00604482015260640161026d565b6002600055565b60006020828403121561130057600080fd5b5035919050565b6000815180845260005b8181101561132d57602081850181015186830182015201611311565b506000602082860101526020601f19601f83011685010191505092915050565b8c81526001600160a01b038c166020820152610180604082018190526000906113788382018e611307565b9050828103606084015261138c818d611307565b90508a60808401528960a08401526113a860c084018a15159052565b8760e08401526113bd61010084018815159052565b8281036101208401526113d08187611307565b90508281036101408401526113e58186611307565b90508281036101608401526113fa8185611307565b9f9e505050505050505050505050505050565b634e487b7160e01b600052604160045260246000fd5b600082601f83011261143457600080fd5b813567ffffffffffffffff8082111561144f5761144f61140d565b604051601f8301601f19908116603f011681019082821181831017156114775761147761140d565b8160405283815286602085880101111561149057600080fd5b836020870160208301376000602085830101528094505050505092915050565b803580151581146114c057600080fd5b919050565b60008060008060008060008060006101208a8c0312156114e457600080fd5b893567ffffffffffffffff808211156114fc57600080fd5b6115088d838e01611423565b9a5060208c013591508082111561151e57600080fd5b61152a8d838e01611423565b995060408c0135985060608c0135975061154660808d016114b0565b965060a08c0135955060c08c013591508082111561156357600080fd5b61156f8d838e01611423565b945060e08c013591508082111561158557600080fd5b6115918d838e01611423565b93506101008c01359150808211156115a857600080fd5b506115b58c828d01611423565b9150509295985092959850929598565b600080600080608085870312156115db57600080fd5b84359350602085013567ffffffffffffffff808211156115fa57600080fd5b61160688838901611423565b9450604087013591508082111561161c57600080fd5b61162888838901611423565b9350606087013591508082111561163e57600080fd5b5061164b87828801611423565b91505092959194509250565b60608152600061166a6060830186611307565b828103602084015261167c8186611307565b905082810360408401526116908185611307565b9695505050505050565b600080604083850312156116ad57600080fd5b82356001600160a01b03811681146116c457600080fd5b946020939093013593505050565b600080604083850312156116e557600080fd5b50508035926020909101359150565b600181811c9082168061170857607f821691505b60208210810361172857634e487b7160e01b600052602260045260246000fd5b50919050565b634e487b7160e01b600052601160045260246000fd5b6000600182016117565761175661172e565b5060010190565b601f8211156117a757600081815260208120601f850160051c810160208610156117845750805b601f850160051c820191505b818110156117a357828155600101611790565b5050505b505050565b815167ffffffffffffffff8111156117c6576117c661140d565b6117da816117d484546116f4565b8461175d565b602080601f83116001811461180f57600084156117f75750858301515b600019600386901b1c1916600185901b1785556117a3565b600085815260208120601f198616915b8281101561183e5788860151825594840194600190910190840161181f565b508582101561185c5787850151600019600388901b60f8161c191681555b5050505050600190811b01905550565b8681526001600160a01b038616602082015260c06040820181905260009061189690830187611307565b6060830195909552506080810192909252151560a0909101529392505050565b6000816118c5576118c561172e565b506000190190565b86815260018060a01b038616602082015284604082015260c0606082015260006118fa60c0830186611307565b828103608084015261190c8186611307565b905082810360a08401526119208185611307565b999850505050505050505056fea2646970667358221220b9cd606256c1d6439f4657faea7e8c5268fcee09e3036101c2876125d62b305264736f6c63430008110033",
  "linkReferences": {},
  "deployedLinkReferences": {}
}